:040000008A15C02974
:10000800FF00030E8301D6000A08D5008A01700894
:10001800A3007108A2007208A1007308A0008A1545
:10002800A8218A1101307006031D1F288A15BC21DA
:100038008A110130A4002308F0002208F1002108E9
:10004800F2002008F30055088A00560E8300FF0EC0
:040058007F0E09000E
:10005C004128053083120313F10058280630F100B3
:10006C0058280730F10058280830F100582809307A
:10007C00F10058282D29831203136408003A031940
:10008C002F286408013A031934286408023A03192A
:10009C0037286408033A03193A286408043A031908
:1000AC003D2840280A298312031301306606031DDC
:1000BC0063287108840000146E2800306606031D46
:1000CC006B287108840000106E28710884000010E1
:1000DC002D298312031301306606031D792871083C
:1000EC0084008014842800306606031D8128710862
:1000FC008400801084287108840080102D298312BC
:10010C00031301306606031D8F2871088400001547
:10011C009A2800306606031D972871088400001188
:10012C009A287108840000112D29831203130130C1
:10013C006606031DA528710884008015B0280030C0
:10014C006606031DAD28710884008011B028710863
:10015C00840080112D298312031301306606031DC0
:10016C00BB28710884000016C62800306606031DE3
:10017C00C328710884000012C6287108840000127C
:10018C002D298312031301306606031DD128710833
:10019C0084008016DC2800306606031DD9287108FF
:1001AC0084008012DC287108840080122D298312AF
:1001BC00031301306606031DE7287108840000173D
:1001CC00F22800306606031DEF2871088400001326
:1001DC00F2287108840000132D29831203130130B7
:1001EC006606031DFD28710884008017082900305D
:1001FC006606031D052971088400801308297108FF
:10020C00840080132D292D29831203136508003ACD
:10021C00031959286508013A03196F286508023A31
:10022C00031985286508033A03199B286508043AC5
:10023C000319B1286508053A0319C7286508063A59
:10024C000319DD286508073A0319F3280929080062
:10025C0083120313610884000014610884000008F1
:10026C00F1000A307106F000FE30F0057108F0065E
:10027C006108840070088000610A8400C830800026
:02028C00080068
:10028E0083120313381C88293903F0007008B90053
:10029E0000303906031D8129FE303805F100F10CBE
:1002AE00F11301307102F200F301031CF30301306C
:1002BE00F0007008F1007208F000710803196B2944
:1002CE00F00D7010FF3E65293808F006FE30F0057F
:1002DE003808F0067008B800FE303805F100F10C51
:1002EE00F11300307106031D7D29B701C830B90026
:1002FE003810872961083D06031D87290230BD0786
:10030E00C4293903F0007008B90000303906031D06
:10031E00C429FE303805F100F10CF11301307102E1
:10032E00F200F301031CF3030130F0007008F1003A
:10033E007208F00071080319A829F00D7010FF3E25
:10034E00A2293808F006FE30F0053808F0067008CD
:10035E00B800FE303805F100F10CF11300307106D3
:10036E00031DBB29B701C12961083D06031DC12923
:0C037E000230BD07C830B9003814080078
:10038A0083120313610884000008F0000F3070051F
:10039A00E40070307005F100F10CF113F10CF11367
:1003AA00F10CF113F10CF1137108E5000130E600CC
:0E03BA002E20831203136108840080170800B0
:1003C800013083120313E400E501610A840001305F
:1003D8000005E6002E20013083120313E4000130EB
:1003E800E500610A8400003080180130E6002E2004
:1003F800013083120313E4000230E500610A84002F
:10040800003000190130E6002E200130831203135A
:10041800E4000330E500610A8400003080190130EF
:06042800E6002E20080092
:10042E0083120313610884000008F0000F3070057A
:10043E00E40070307005F100F10CF113F10CF113C2
:10044E00F10CF113F10CF1137108E500E6012E2009
:0C045E008312031361088400801308005F
:10046A00013083120313E3004B2A0530F100602A9E
:10047A000630F100602A0730F100602A0830F100E6
:10048A00602A0930F100602AE301602A6108003A13
:10049A0003193A2A6108013A03193D2A6108023A06
:1004AA000319402A6108033A0319432A6108043AE6
:1004BA000319462A492A01306306031DE02ABF2A86
:1004CA00710884000008F000701C6E2A0130E300F5
:1004DA006F2AE301E02A710884000008F000F01C8A
:1004EA00792A0130E3007A2AE301E02A71088400BC
:1004FA000008F000701D842A0130E300852AE30118
:10050A00E02A710884000008F000F01D8F2A0130EB
:10051A00E300902AE301E02A710884000008F00051
:10052A00701E9A2A0130E3009B2AE301E02A71082F
:10053A0084000008F000F01EA52A0130E300A62A74
:10054A00E301E02A710884000008F000701FB02A55
:10055A000130E300B12AE301E02A710884000008AF
:10056A00F000F01FBB2A0130E300BC2AE301E02AB5
:10057A00E301E02A6208003A0319652A6208013A8F
:10058A000319702A6208023A03197B2A6208033A9D
:10059A000319862A6208043A0319912A6208053A5D
:1005AA0003199C2A6208063A0319A72A6208073A1D
:0C05BA000319B22ABD2A6308F0000800F3
:1005C60083120313B50300303506031D0A2B3B3097
:1005D6003406031D042BB4013B303306031DFF2AEA
:1005E600B30117303206031DFA2AB201FE2A320A77
:1005F600F0007008B200032B330AF0007008B30055
:10060600082B340AF0007008B4003230B500080038
:10061600831203137008F100F0010830FC00710822
:10062600F40C03181A2BFC0B132BF10100340310E6
:100636001F2BF40C0318F107F10CF00CFC0B1C2B10
:020646000800AA
:10064800831203135E08DF00662B5E0884008013A4
:100658005E0884000008F00007307005E1003830BB
:100668007005F100F10CF113F10CF113F10CF11319
:100678007108E200352200307006031D462B5E0823
:1006880084000017732B5E0884000008F000073010
:100698007005E10038307005F100F10CF113F10C30
:1006A800F113F10CF1137108E200352201307006E4
:1006B800031D642B5E08840080175E088400001305
:1006C800732B732B5F0884000008F000701F292B20
:1006D8005F0884000008F000701B472B652B08009A
:1006E800A52BB42B83120313BB1F832B17303202A5
:1006F8000318822B320AF0007008B2008D2BBC1F41
:100708008D2B3208003C03188D2B3203F000700843
:10071800B200B42BBB1F992B3B3033020318982B24
:10072800330AF0007008B300A32BBC1FA32B3308B7
:10073800003C0318A32B3303F0007008B300B42B5C
:10074800B42B831203133708003A0319752B3708A3
:10075800013A0319762B3708023A03198E2BA42B7A
:02076800080087
:10076A00253083120313E100C5212730E100C5219A
:10077A002930E100C5212B30E100C5212D30E100EF
:10078A00C5212F30E100C5210C2C2530E100E421E0
:10079A00253083120313E10017220130BD00252CF6
:1007AA002730E100E421273083120313E1001722E6
:1007BA000230BD00252C2930E100E42129308312C2
:1007CA000313E10017220330BD00252C2B30E10072
:1007DA00E4212B3083120313E10017220430BD00F9
:1007EA00252C2D30E100E4212D3083120313E10082
:1007FA0017220530BD00252C2F30E100E4212F30CF
:10080A0083120313E1001722BD01252C252C3D0874
:10081A00003A0319CA2B3D08013A0319D52B3D08A2
:10082A00023A0319E02B3D08033A0319EB2B3D0862
:10083A00043A0319F62B3D08053A0319012C0B2C2F
:02084A000800A4
:10084C0083120313B6036A2C00303606031D372CB3
:10085C00BA1F352C0130B7003830E1002E2104309E
:10086C00B600772C00303606031D4F2CBA1F442CD3
:10087C000230B7003830E1002E214D2CBB1B492C27
:10088C00BC1B492C4D2C3830E1002E213810043083
:10089C00B600E1014721772C00303606031D652C8C
:1008AC00BA1F5A2CB701632CBB1B5F2CBC1B5F2CD3
:1008BC00632C3830E1002E2138100430B6000230A1
:1008CC00E1004721772C772C3708003A03192A2CA2
:1008DC003708013A0319382C3708023A0319522CFD
:0408EC00692C08006B
:1008F00083120313F8010830FC00700DF80D740822
:10090000F8020318852CF8070310F00DFC0B7D2C62
:020910000800DD
:100912009C2C853083120313F100B32C8630F10036
:10092200B32C8730F100B32C8830F100B32C89301E
:10093200F100B32C882D831203135E08003A0319C9
:100942008A2C5E08013A03198F2C5E08023A0319B9
:10095200922C5E08033A0319952C5E08043A031997
:10096200982C9B2C652D8312031300306006031D07
:10097200BE2C710884000010C92C01306006031DD2
:10098200C62C710884000014C92C7108840000145C
:10099200882D8312031300306006031DD42C7108C6
:1009A20084008010DF2C01306006031DDC2C7108EE
:1009B20084008014DF2C710884008014882D831237
:1009C200031300306006031DEA2C71088400001135
:1009D200F52C01306006031DF22C7108840000150D
:1009E200F52C710884000015882D83120313003042
:1009F2006006031D002D7108840080110B2D01304B
:100A02006006031D082D7108840080150B2D7108E6
:100A120084008015882D8312031300306006031DA5
:100A2200162D710884000012212D01306006031D6D
:100A32001E2D710884000016212D710884000016F5
:100A4200882D8312031300306006031D2C2D7108BC
:100A520084008012372D01306006031D342D710889
:100A620084008016372D710884008016882D831229
:100A7200031300306006031D422D71088400001329
:100A82004D2D01306006031D4A2D710884000017A8
:100A92004D2D710884000017882D83120313003036
:100AA2006006031D582D710884008013632D0130E8
:100AB2006006031D602D710884008017632D710884
:100AC20084008017882D882D831203135F08003A53
:100AD2000319B42C5F08013A0319CA2C5F08023AC1
:100AE2000319E02C5F08033A0319F62C5F08043A55
:100AF20003190C2D5F08053A0319222D5F08063AE7
:100B02000319382D5F08073A03194E2D642D08008A
:0E0B1200831203133F088A003E088200080089
:040B20008B17080027
:100B24000330831203135C020318F32D0730F00023
:100B34005C08F4000B237008403E84000008F000B9
:100B4400840A0008F100840A0008F200840A0008FC
:100B54007008F3007108F4007208F5007308F600D9
:100B64000030F0007606031DC12D70087506031DC4
:100B7400C12D70087406031DC12D7308003A0319B2
:100B8400F32D0730F0005C08F4000B237008403E9E
:100B9400840000308000840A8001840A80010730C8
:100BA400F0005C08F4000B234030F00706307007B7
:100BB400840080010730F0005C08F4000B2340300F
:100BC400F00704307007840080010730F0005C08EF
:100BD400F4000B234030F0070330700784008001D9
:040BE400F32D0800E5
:080BE8007F308B050B1708009C
:100BF000831203139201FF30831692008312910136
:080C00008C1083168C10080013
:100C0800831203135C0884000008F0000F3070059D
:100C1800DE0070307005F100F10CF113F10CF113E6
:100C2800F10CF113F10CF1137108DF00E0018924D4
:0C0C3800831203135C08E100C5210800D2
:100C440083120313DC0103305C0203189D2E07306A
:100C5400F0005C08F4000B237008403E8400000898
:100C6400F000840A0008F100840A0008F200840AF3
:100C740000087008F3007108F4007208F5007308A6
:100C8400F6000030F0007606031D522E700875063B
:100C9400031D522E70087406031D522E7308003A69
:100CA40003199B2E0730F0005C08F4000B2340303E
:100CB400F00704307007F100710884000003F000AD
:100CC40071088400700880000730F0005C08F400AC
:100CD4000B234030F0070430700784000030000616
:100CE400031D9A2E0730F0005C08F4000B234030FB
:100CF400F00706307007F10071088400000AF00064
:100D040071088400700880000730F0005C08F4006B
:100D14000B234030F00704307007F10003307007F4
:100D240084000008F00071088400700880009A2E86
:080D34009B2EDC0A252E0800AD
:100D3C00E32274230A3083120313F4003208F00008
:100D4C0078247008A6000A30F4003208F0007824E9
:100D5C007808F0007008A8000A30F4003308F0009E
:100D6C0078247008AA000A30F4003308F0007824C4
:100D7C007808F0007008AC000A30F4003408F00079
:100D8C0078247008AE000A30F4003408F00078249F
:0A0D9C007808F0007008B0000800AD
:100DA600E02E831203135C089200EF2E5C0892007B
:100DB600EF2E5C089200EF2EEF2E831203135C08D1
:100DC600003A0319D42E5C08013A0319D92E5C089F
:100DD600023A0319DC2EDF2EA12F5D08F000F00D7C
:100DE6007010F00D7010F00D701070089204E22F64
:100DF6005D08F000F00D7010F00D7010F00D701021
:100E060070089204E22F5D08F000F00D7010F00DEE
:100E16007010F00D701070089204E22F5D08F0005B
:100E2600F00D7010F00D7010F00D70107008920437
:100E3600E22F5D08F000F00D7010F00D7010F00D4F
:100E4600701070089204E22F5D08F000F00D70102B
:100E5600F00D7010F00D701070089204E22F5D080E
:100E6600F000F00D7010F00D7010F00D701070089D
:100E76009204E22F5D08F000F00D7010F00D701076
:100E8600F00D701070089204E22F5D08F000F00D6E
:100E96007010F00D7010F00D701070089204E22FB3
:100EA6005D08F000F00D7010F00D7010F00D701070
:100EB60070089204E22F5D08F000F00D7010F00D3E
:100EC6007010F00D701070089204E22F5D08F000AB
:100ED600F00D7010F00D7010F00D70107008920487
:100EE600E22F5D08F000F00D7010F00D7010F00D9F
:100EF600701070089204E22F5D08F000F00D70107B
:100F0600F00D7010F00D701070089204E22F5D085D
:100F1600F000F00D7010F00D7010F00D70107008EC
:100F26009204E22F5D08F000F00D7010F00D7010C5
:100F3600F00D701070089204E22FE22F5D08003A5F
:100F46000319F02E5D08013A0319FB2E5D08023ADB
:100F56000319062F5D08033A0319112F5D08043A99
:100F660003191C2F5D08053A0319272F5D08063A59
:100F76000319322F5D08073A03193D2F5D08083A19
:100F86000319482F5D08093A0319532F5D080A3AD9
:100F960003195E2F5D080B3A0319692F5D080C3A99
:100FA6000319742F5D080D3A03197F2F5D080E3A59
:100FB60003198A2F5D080F3A0319952FA02F0800F1
:100FC60083120313DC0103305C020318F02F5C0864
:0C0FD6003A3EDE002423DC0AE62F08006F
:080FE20083120313121508002D
:0E0FEA00831203133F088A003E0882000800AD
:0E1000008A1126248A158A11B5238A15080044
:0C100E00831203135C0883169200080094
:08101A00831603138C14080077
:10102200831203135C0884000008F0000730700587
:10103200DE0038307005F100F10CF113F10CF11300
:10104200F10CF1137108DF000130E0008A118924EC
:041052008A150800F3
:1010560083120313D7010330570203183A2857089F
:101066003A3EDC00112083120313D70A2E2808000B
:101076000A3083120313F4003208F0008A11782430
:101086008A157008A6000A30F4003208F0008A11AA
:1010960078248A157808F0007008A8000A30F40051
:1010A6003308F0008A1178248A157008AA000A30DD
:1010B600F4003308F0008A1178248A157808F000C5
:1010C6007008AC000A30F4003408F0008A11782465
:1010D6008A157008AE000A30F4003408F0008A1150
:0E10E60078248A157808F0007008B000080021
:1010F40003308312031331020318CE280730F000A3
:101104003108F4008A110B238A157008403E8400CC
:10111400570880005808840A80005908840A80000F
:101124005A080730F0003108F4008A110B238A159D
:101134004030F0070430700784005A0AF000700849
:1011440080000730F0003108F4008A110B238A155F
:101154004030F0070330700784005B0880000730DC
:10116400F0003108F4008A110B238A154030F0078F
:1011740006307007840080010730F0003108F40065
:101184008A110B238A154030F0070530700784005C
:0A11940031088000B10ACE280800DF
:10119E000D208A1190258A158A11F1278A150800CB
:1011AE008A1189258A150A128000840ABE0A03193B
:0A11BE00BF0AF003031DD728080044
:1011C8000130831203132406031D4D298A11222698
:1011D8008A15D7010330570203184C290730F0004D
:1011E8005708F4008A110B238A154030F00706309F
:1011F800700784000008003C03184A290730F000F3
:101208005708F4008A110B238A157008403E8400A1
:101218000008F000840A0008F100840A0008F200BF
:10122800840A00087008BE007108BF008A11F527FB
:101238008A150A12073083120313F0005708F400C6
:101248008A110B238A154030F00706307007F10029
:10125800710884000003F0007108840070088000A1
:101268000730F0005708F4008A110B238A15403024
:10127800F00703307007840000300006031D492979
:101288005708DC008A1192258A154A29D70AEE28C0
:04129800A4010800A5
:10129C0083120313D7010330570203185C29570834
:1012AC00DC008A1192258A15D70A51298A11F42556
:1012BC008A158A11F8258A1501308312DC00043056
:1012CC00DD008A11D3268A15FA30DC0007200800CD
:1012DC0083120313D70106305702031881295708CC
:1012EC00F000F00D70107008253EDC008A11042609
:1012FC008A15D70A71290130DE00DF01E0018A115D
:10130C0089248A15013083120313DE000130DF00BB
:10131C00E0018A1189248A15013083120313DE003F
:10132C000230DF00E0018A1189248A150130831212
:10133C000313DE000330DF00E0018A1189248A15D3
:04134C000020080075
:101350000230831203130C05F2007208F100F10C45
:10136000F11301307106031DB8290130F300B929CA
:08137000F3017308F00008000E
:08137800831203138C1008001E
:101380000A224E212B203B206E21E330D70007306C
:10139000D8000030D9000030DA010430DB007A20B8
:1013A0009E30D7000630D8000030D9000030DA0176
:1013B0000430DB007A200030D7000830D80000303D
:1013C000D9000030DA010130DB007A20CF20E420A0
:0413D000E729E929F7
:10141400243084001A3083120313F000EF30BE002E
:081424000930BF00D7200800C9
:0213DE000034D9
:1013E0008334003493340034A3340034B3340034F1
:0813F000C3340034D33400348F
:0213F8000034BF
:0613FA0000340034003451
:02140000323484
:021402000434B0
:021404000034B2
:041406000B34C834A7
:06140A0002340A34123422
:021410000034A6
:02400E004A2F37
:00000001FF
