:040000008A156228D3
:10000800FF00030E8301B8000A08B7008A017008D0
:10001800A1007108A000D62701307006031D17281B
:10002800EA270130A9002108F0002008F10037086C
:0C0038008A00380E8300FF0E7F0E0900C6
:10004400013083120313C20038280530F1004D2813
:100054000630F1004D280730F1004D280830F1003A
:100064004D280930F1004D28C2014D2840080A3AB4
:100074000319272840080B3A03192A2840080C3A88
:1000840003192D2840080D3A0319302840080E3A68
:1000940003193328362801304206031DCD28AC2825
:1000A400710884000008F000701C5B280130C20055
:1000B4005C28C201CD28710884000008F000F01CFF
:1000C40066280130C2006728C201CD287108840067
:1000D4000008F000701D71280130C2007228C201AE
:1000E400CD28710884000008F000F01D7C28013040
:1000F400C2007D28C201CD28710884000008F000E8
:10010400701E87280130C2008828C201CD287108DA
:1001140084000008F000F01E92280130C2009328E9
:10012400C201CD28710884000008F000701F9D28CA
:100134000130C2009E28C201CD2871088400000845
:10014400F000F01FA8280130C200A928C201CD2860
:10015400C201CD284108003A031952284108013A46
:1001640003195D284108023A031968284108033A33
:10017400031973284108043A03197E284108053AF3
:10018400031989284108063A031994284108073AB3
:0C01940003199F28AA284208F000080068
:1001A000E328053083120313F100FA280630F1002A
:1001B000FA280730F100FA280830F100FA2809304F
:1001C000F100FA28CF298312031340080A3A0319D1
:1001D000D12840080B3A0319D62840080C3A0319D5
:1001E000D92840080D3A0319DC2840080E3A0319B3
:1001F000DF28E228AC298312031301304206031DD5
:100200000529710884000014102900304206031DDE
:100210000D29710884000010102971088400001055
:10022000CF298312031301304206031D1B297108D5
:1002300084008014262900304206031D23297108FA
:10024000840080102629710884008010CF29831231
:10025000031301304206031D312971088400001583
:100260003C2900304206031D392971088400001121
:100270003C29710884000011CF2983120313013037
:100280004206031D47297108840080155229003059
:100290004206031D4F2971088400801152297108FC
:1002A00084008011CF298312031301304206031DFD
:1002B0005D29710884000016682900304206031D7C
:1002C00065297108840000126829710884000012F1
:1002D000CF298312031301304206031D73297108CD
:1002E000840080167E2900304206031D7B29710898
:1002F000840080127E29710884008012CF29831225
:10030000031301304206031D892971088400001778
:10031000942900304206031D9129710884000013BE
:100320009429710884000013CF298312031301302C
:100330004206031D9F29710884008017AA290030F6
:100340004206031DA729710884008013AA29710899
:1003500084008013CF29CF29831203134108003A68
:100360000319FB284108013A031911294108023AEF
:10037000031927294108033A03193D294108043A82
:10038000031953294108053A031969294108063A16
:1003900003197F294108073A03199529AB29080059
:0A03A000831203133E08A2000800B8
:1003AA00032A0C3083120313C000C101222001303A
:1003BA007006031DE3290130BF00E429BF01122A98
:1003CA000C30C0000130C100222001307006031D2C
:1003DA00F1290130BF00F229BF01122A0C30C000F6
:1003EA000230C100222001307006031DFF290130AE
:1003FA00BF00002ABF01122ABF01122A8312031367
:10040A003E08003A0319D6293E08013A0319E5299C
:10041A003E08023A0319F329012A3F08F0000800AE
:10042A004C2A0D3083120313C000C101C201D0202F
:10043A00672A0D3083120313C0000130C100C201C4
:10044A00D020672A0D3083120313C0000230C10086
:10045A00C201D020672A0D3083120313C000033073
:10046A00C100C201D020672A0D3083120313C000D5
:10047A000430C100C201D020672A0D308312031351
:10048A00C0000530C100C201D020672A672A831242
:10049A0003133E08003A0319162A3E08013A0319C3
:1004AA001E2A3E08023A0319272A3E08033A03196C
:1004BA00302A3E08043A0319392A3E08053A031934
:0604CA00422A4B2A080043
:1004D0000B3083120313C000C10101303E05C2007E
:1004E000D0200B3083120313C0000130C100003054
:1004F000BE180130C200D0200B3083120313C0009D
:100500000230C10000303E190130C200D0200B3053
:1005100083120313C0000330C1000030BE19013044
:06052000C200D02008001B
:1005260083120313F8010830FC00700DF80D7408EF
:10053600F8020318A02AF8070310F00DFC0B982AFE
:020546000800AB
:10054800E12A0D3083120313C000C1010130C2003B
:10055800D020FC2A0D3083120313C0000130C100E3
:100568000130C200D020FC2A0D3083120313C000D2
:100578000230C1000130C200D020FC2A0D308312A5
:100588000313C0000330C1000130C200D020FC2A90
:100598000D3083120313C0000430C1000130C200C3
:1005A800D020FC2A0D3083120313C0000530C1008F
:1005B8000130C200D020FC2AFC2A831203133E0813
:1005C800003A0319A52A3E08013A0319AE2A3E0843
:1005D800023A0319B82A3E08033A0319C22A3E0808
:1005E800043A0319CC2A3E08053A0319D62AE02A08
:0205F8000800F9
:0A05FA00831203133E08A40008005A
:0A060400831203132C08F000080015
:0A060E00831203133E08B500080034
:0A061800831203132B08F000080002
:10062200831203139201FF30831692008312910109
:080632008C1083168C100800E7
:10063A002A2B831203133B089200392B3B089200A2
:10064A00392B3B089200392B392B831203133B08B1
:10065A00003A03191E2B3B08013A0319232B3B08C6
:10066A00023A0319262B292BEB2B3C08F000F00D3C
:10067A007010F00D7010F00D7010700892042C2C90
:10068A003C08F000F00D7010F00D7010F00D7010B5
:10069A00700892042C2C3C08F000F00D7010F00D3C
:1006AA007010F00D7010700892042C2C3C08F000A9
:1006BA00F00D7010F00D7010F00D701070089204AB
:1006CA002C2C3C08F000F00D7010F00D7010F00D9D
:1006DA007010700892042C2C3C08F000F00D701079
:1006EA00F00D7010F00D7010700892042C2C3C085C
:1006FA00F000F00D7010F00D7010F00D7010700811
:10070A0092042C2C3C08F000F00D7010F00D7010C3
:10071A00F00D7010700892042C2C3C08F000F00DBB
:10072A007010F00D7010F00D7010700892042C2CDF
:10073A003C08F000F00D7010F00D7010F00D701004
:10074A00700892042C2C3C08F000F00D7010F00D8B
:10075A007010F00D7010700892042C2C3C08F000F8
:10076A00F00D7010F00D7010F00D701070089204FA
:10077A002C2C3C08F000F00D7010F00D7010F00DEC
:10078A007010700892042C2C3C08F000F00D7010C8
:10079A00F00D7010F00D7010700892042C2C3C08AB
:1007AA00F000F00D7010F00D7010F00D7010700860
:1007BA0092042C2C3C08F000F00D7010F00D701013
:1007CA00F00D7010700892042C2C2C2C3C08003A66
:1007DA0003193A2B3C08013A0319452B3C08023A03
:1007EA000319502B3C08033A03195B2B3C08043AC3
:1007FA000319662B3C08053A0319712B3C08063A83
:10080A0003197C2B3C08073A0319872B3C08083A42
:10081A000319922B3C08093A03199D2B3C080A3A02
:10082A000319A82B3C080B3A0319B32B3C080C3AC2
:10083A000319BE2B3C080D3A0319C92B3C080E3A82
:10084A000319D42B3C080F3A0319DF2BEA2B0800B3
:10085A00402C853083120313F100572C8630F100A7
:10086A00572C8730F100572C8830F100572C8930EB
:10087A00F100572C2C2D831203133B080A3A031953
:10088A002E2C3B080B3A0319332C3B080C3A03195C
:10089A00362C3B080D3A0319392C3B080E3A03193A
:1008AA003C2C3F2C092D8312031300303D06031DF7
:1008BA00622C7108840000106D2C01303D06031D66
:1008CA006A2C7108840000146D2C710884000014CD
:1008DA002C2D8312031300303D06031D782C71085A
:1008EA0084008010832C01303D06031D802C710882
:1008FA0084008014832C7108840080142C2D8312A8
:10090A00031300303D06031D8E2C7108840000116C
:10091A00992C01303D06031D962C710884000015A0
:10092A00992C7108840000152C2D831203130030B2
:10093A003D06031DA42C710884008011AF2C0130E0
:10094A003D06031DAC2C710884008015AF2C71087C
:10095A00840080152C2D8312031300303D06031DDD
:10096A00BA2C710884000012C52C01303D06031D03
:10097A00C22C710884000016C52C71088400001668
:10098A002C2D8312031300303D06031DD02C710851
:10099A0084008012DB2C01303D06031DD82C71081F
:1009AA0084008016DB2C7108840080162C2D83129B
:1009BA00031300303D06031DE62C71088400001362
:1009CA00F12C01303D06031DEE2C7108840000173E
:1009DA00F12C7108840000172C2D831203130030A8
:1009EA003D06031DFC2C710884008013072D01307D
:1009FA003D06031D042D710884008017072D710818
:100A0A00840080172C2D2C2D831203133C08003AE6
:100A1A000319582C3C08013A03196E2C3C08023A77
:100A2A000319842C3C08033A03199A2C3C08043A0B
:100A3A000319B02C3C08053A0319C62C3C08063A9F
:100A4A000319DC2C3C08073A0319F22C082D08007C
:080A5A008312031312150800BA
:100A62006A2D831203133B08253EBC005B2D3B0815
:100A72002B3E840080013B08BE00D5210030700669
:100A8200031D482D3B08253E840001308000682D5F
:100A92003B08BE00D52101307006031D592D3B08CD
:100AA200253E840080013B082B3E840001308000FB
:100AB200682D682D3C0884000008003A0319382D7F
:100AC2003C0884000008013A0319492D5A2D792D5A
:100AD200792D831203133B08003A0319322D3B0888
:100AE200013A0319322D3B08023A0319322D692DBE
:020AF2000800FA
:080AF4007F308B050B17080091
:0C0AFC00831203133B08831692000800CD
:100B080083120313BE01A422013083120313BE0013
:100B1800A422023083120313BE00A42203308312DE
:100B28000313BE00A422043083120313BE00A422C0
:100B3800053083120313BE00A422152E0A30831237
:100B48000313F4002208F00093227008BE00682204
:100B580083120313BE011522013083120313AE0062
:100B6800302E0A30F4002208F00093227808F000B2
:100B78007008BE006822013083120313BE001522DC
:100B8800023083120313AE00302E0A30F40024081A
:100B9800F00093227008BE0068220230831203130B
:100BA800BE001522033083120313AE00302E0A3024
:100BB800F4002408F00093227808F0007008BE00C2
:100BC8006822033083120313BE00152204308312F7
:100BD8000313AE00302E0A30F4003508F0009322DB
:100BE8007008BE006822043083120313BE00152269
:100BF800053083120313AE00302E0A30F400350896
:100C0800F00093227808F0007008BE0068220530D2
:100C180083120313BE00152283120313AE01302E74
:100C2800302E831203132E08003A0319A22D2E0822
:100C3800013A0319B52D2E08023A0319C92D2E08B9
:100C4800033A0319DB2D2E08043A0319EF2D2E0859
:0A0C5800053A0319012E142E0800BE
:100C620083120313AA0300302A06031D582E3230C2
:100C7200AA003B303006031D542EB0013B30310632
:100C8200031D4F2EB10117302F06031D4A2EAF014F
:100C92004B2EAF0A2F08BE00D021502EB10A3108C8
:100CA200BE00FD22552EB00A3008BE000723080000
:0A0CB200831203132D08F000080060
:100CBC006A2E013083120313B300792E0230B30075
:100CCC00792EB301792E792E831203133308003A4F
:100CDC0003195F2E3308013A0319642E3308023AC4
:080CEC000319672E692E0800B0
:100CF400B72EC62E1730831203132F0203188C2E1F
:100D04000C2301307006031D8C2EAF0A2F08BE0081
:100D1400D021992E2F08003C0318992E022301306C
:100D24007006031D992EAF032F08BE00D021C62ED6
:100D34003B3031020318A82E0C2301307006031D2A
:100D4400A82EB10A3108BE00FD22B52E3108003CA0
:100D54000318B52E022301307006031DB52EB1030E
:100D64003108BE00FD22C62EC62E8312031333089B
:100D7400003A03197B2E3308013A03197C2E3308F9
:0A0D8400023A03199A2EB62E080059
:0E0D8E00831203133A088A0039088200080015
:080D9C00831603138C140800F8
:100DA400252F342F831203133208003A0319ED2E32
:100DB400B20300303206031DE02EB603E42E0230E7
:100DC400AE00EC2E2E08003A0319E12E2E08013A4B
:100DD4000319E12EF72EB40300303406031DF72E59
:100DE400C830B200C830B400B60300303606031D64
:100DF400FC2EB301342F3208003A0319142FB20326
:100E040000303206031D072FB6030B2F0430AE004B
:100E1400132F2E08023A0319082F2E08033A031938
:100E2400082F1E2FB40300303406031D1E2FC830B4
:100E3400B200C830B400B60300303606031D232FB9
:100E4400B301342F342F831203133308003A0319E8
:100E5400D32E3308013A0319D42E3308023A031966
:060E6400FD2E242F080002
:040E6A008B170800DA
:100E6E000B3083120313BB00BC01BD012D240B30CC
:100E7E0083120313BB000130BC00BD012D240B30C7
:100E8E0083120313BB000230BC00BD012D240B30B6
:100E9E0083120313BB000330BC00BD012D240D30A3
:100EAE0083120313BB00BC01BD012D240D30831230
:100EBE000313BB000130BC00BD012D240D30831285
:100ECE000313BB000230BC00BD012D240D30831274
:100EDE000313BB000330BC00BD012D240D30831263
:100EEE000313BB000430BC00BD012D240D30831252
:0E0EFE000313BB000530BC00BD012D2408000D
:100F0C00831203132F08BE00D0213108BE00FD222E
:080F1C003008BE0007230800A5
:100F240083120313A80300302806031DA52FBB0159
:100F340031250130BB0031250230BB00312504309E
:080F4400A8000130A300080021
:100F4C000C3083120313BB00BC010130BD002D24F7
:100F5C000C3083120313BB000130BC000130BD0008
:100F6C002D240C3083120313BB000230BC00013063
:060F7C00BD002D24080059
:100F8200C7268A110A128000840AB90A0319BA0A0A
:080F9200F003031DC12F08004C
:100F9A000130831203132306031DD52F31267A2627
:020FAA0008003D
:100FAC000230831203130C05F2007208F100F10CED
:100FBC00F11301307106031DE62F0130F300E72F0A
:080FCC00F3017308F0000800B6
:080FD400831203138C100800C6
:100FDC0022308400153083120313F0008030B900E6
:080FEC000830BA00C12708001B
:101000000130831203132306031D3E288A1159263B
:101010008A1501307006031D10288A115E268A1574
:1010200030283D288A110C238A15013070060319D7
:1010300028288A1102238A150130700603192828EE
:101040008A1159268A1501307006031928282E287E
:10105000C830B200C830B4000530B6003D283D2885
:101060003308003A031911283308013A03191228EA
:101070003308023A031912282F28A3018A11D22615
:0A1080008A158A1184258A150800DC
:10108A008A117A258A158A1111238A150130831249
:10109A00BB000430BC008A111D238A15FA30BB003C
:1010AA008A117E258A158A11CE268A158A11352734
:0A10BA008A158A112D258A150800F9
:1010C4008A11EE278A1545208A1137278A158A1135
:1010D400A6278A158A1186278A1501302906031D39
:1010E4007B288A1192278A158A11CD278A15002018
:0610F400A9016F287C2811
:021100000C34AD
:021102000034B7
:0211040037347E
:0611060000340034003447
:02110C000434A9
:02110E000034AB
:02111000323477
:061112000034003400343B
:021118000034A1
:02111A0000349F
:02111C0000349D
:02111E0000349B
:02112000C834D1
:02112200003497
:02112400C834CD
:02112600003493
:0211280005348C
:02400E004A2F37
:00000001FF
